{
  "_format": "hh-sol-artifact-1",
  "contractName": "MeLegendGen1",
  "sourceName": "contracts/MeLegendGen1.sol",
  "abi": [
    {
      "inputs": [
        {
          "internalType": "address",
          "name": "_genesisNFT",
          "type": "address"
        }
      ],
      "stateMutability": "nonpayable",
      "type": "constructor"
    },
    {
      "anonymous": false,
      "inputs": [
        {
          "indexed": true,
          "internalType": "address",
          "name": "owner",
          "type": "address"
        },
        {
          "indexed": true,
          "internalType": "address",
          "name": "approved",
          "type": "address"
        },
        {
          "indexed": true,
          "internalType": "uint256",
          "name": "tokenId",
          "type": "uint256"
        }
      ],
      "name": "Approval",
      "type": "event"
    },
    {
      "anonymous": false,
      "inputs": [
        {
          "indexed": true,
          "internalType": "address",
          "name": "owner",
          "type": "address"
        },
        {
          "indexed": true,
          "internalType": "address",
          "name": "operator",
          "type": "address"
        },
        {
          "indexed": false,
          "internalType": "bool",
          "name": "approved",
          "type": "bool"
        }
      ],
      "name": "ApprovalForAll",
      "type": "event"
    },
    {
      "anonymous": false,
      "inputs": [
        {
          "indexed": true,
          "internalType": "contract IERC20",
          "name": "token",
          "type": "address"
        },
        {
          "indexed": false,
          "internalType": "address",
          "name": "to",
          "type": "address"
        },
        {
          "indexed": false,
          "internalType": "uint256",
          "name": "amount",
          "type": "uint256"
        }
      ],
      "name": "ERC20PaymentReleased",
      "type": "event"
    },
    {
      "anonymous": false,
      "inputs": [
        {
          "indexed": true,
          "internalType": "address",
          "name": "previousOwner",
          "type": "address"
        },
        {
          "indexed": true,
          "internalType": "address",
          "name": "newOwner",
          "type": "address"
        }
      ],
      "name": "OwnershipTransferred",
      "type": "event"
    },
    {
      "anonymous": false,
      "inputs": [
        {
          "indexed": false,
          "internalType": "address",
          "name": "account",
          "type": "address"
        },
        {
          "indexed": false,
          "internalType": "uint256",
          "name": "shares",
          "type": "uint256"
        }
      ],
      "name": "PayeeAdded",
      "type": "event"
    },
    {
      "anonymous": false,
      "inputs": [
        {
          "indexed": false,
          "internalType": "address",
          "name": "from",
          "type": "address"
        },
        {
          "indexed": false,
          "internalType": "uint256",
          "name": "amount",
          "type": "uint256"
        }
      ],
      "name": "PaymentReceived",
      "type": "event"
    },
    {
      "anonymous": false,
      "inputs": [
        {
          "indexed": false,
          "internalType": "address",
          "name": "to",
          "type": "address"
        },
        {
          "indexed": false,
          "internalType": "uint256",
          "name": "amount",
          "type": "uint256"
        }
      ],
      "name": "PaymentReleased",
      "type": "event"
    },
    {
      "anonymous": false,
      "inputs": [
        {
          "indexed": true,
          "internalType": "address",
          "name": "from",
          "type": "address"
        },
        {
          "indexed": true,
          "internalType": "address",
          "name": "to",
          "type": "address"
        },
        {
          "indexed": true,
          "internalType": "uint256",
          "name": "tokenId",
          "type": "uint256"
        }
      ],
      "name": "Transfer",
      "type": "event"
    },
    {
      "inputs": [
        {
          "internalType": "uint256",
          "name": "",
          "type": "uint256"
        }
      ],
      "name": "_genesisClaimed",
      "outputs": [
        {
          "internalType": "address",
          "name": "",
          "type": "address"
        }
      ],
      "stateMutability": "view",
      "type": "function"
    },
    {
      "inputs": [
        {
          "internalType": "address",
          "name": "",
          "type": "address"
        }
      ],
      "name": "_presaleClaimed",
      "outputs": [
        {
          "internalType": "uint256",
          "name": "",
          "type": "uint256"
        }
      ],
      "stateMutability": "view",
      "type": "function"
    },
    {
      "inputs": [
        {
          "internalType": "address",
          "name": "to",
          "type": "address"
        },
        {
          "internalType": "uint256",
          "name": "tokenId",
          "type": "uint256"
        }
      ],
      "name": "approve",
      "outputs": [],
      "stateMutability": "nonpayable",
      "type": "function"
    },
    {
      "inputs": [
        {
          "internalType": "address",
          "name": "owner",
          "type": "address"
        }
      ],
      "name": "balanceOf",
      "outputs": [
        {
          "internalType": "uint256",
          "name": "",
          "type": "uint256"
        }
      ],
      "stateMutability": "view",
      "type": "function"
    },
    {
      "inputs": [],
      "name": "baseURI",
      "outputs": [
        {
          "internalType": "string",
          "name": "",
          "type": "string"
        }
      ],
      "stateMutability": "view",
      "type": "function"
    },
    {
      "inputs": [],
      "name": "claimMint",
      "outputs": [],
      "stateMutability": "payable",
      "type": "function"
    },
    {
      "inputs": [],
      "name": "disable",
      "outputs": [],
      "stateMutability": "nonpayable",
      "type": "function"
    },
    {
      "inputs": [],
      "name": "enableClaiming",
      "outputs": [],
      "stateMutability": "nonpayable",
      "type": "function"
    },
    {
      "inputs": [
        {
          "internalType": "bytes32",
          "name": "_presaleRoot",
          "type": "bytes32"
        }
      ],
      "name": "enablePresale",
      "outputs": [],
      "stateMutability": "nonpayable",
      "type": "function"
    },
    {
      "inputs": [],
      "name": "enablePublic",
      "outputs": [],
      "stateMutability": "nonpayable",
      "type": "function"
    },
    {
      "inputs": [],
      "name": "genesisNFT",
      "outputs": [
        {
          "internalType": "contract ERC721Enumerable",
          "name": "",
          "type": "address"
        }
      ],
      "stateMutability": "view",
      "type": "function"
    },
    {
      "inputs": [
        {
          "internalType": "uint256",
          "name": "tokenId",
          "type": "uint256"
        }
      ],
      "name": "getApproved",
      "outputs": [
        {
          "internalType": "address",
          "name": "",
          "type": "address"
        }
      ],
      "stateMutability": "view",
      "type": "function"
    },
    {
      "inputs": [
        {
          "internalType": "address",
          "name": "owner",
          "type": "address"
        },
        {
          "internalType": "address",
          "name": "operator",
          "type": "address"
        }
      ],
      "name": "isApprovedForAll",
      "outputs": [
        {
          "internalType": "bool",
          "name": "",
          "type": "bool"
        }
      ],
      "stateMutability": "view",
      "type": "function"
    },
    {
      "inputs": [],
      "name": "maxClaimSupply",
      "outputs": [
        {
          "internalType": "uint256",
          "name": "",
          "type": "uint256"
        }
      ],
      "stateMutability": "view",
      "type": "function"
    },
    {
      "inputs": [],
      "name": "maxMintSupply",
      "outputs": [
        {
          "internalType": "uint256",
          "name": "",
          "type": "uint256"
        }
      ],
      "stateMutability": "view",
      "type": "function"
    },
    {
      "inputs": [],
      "name": "maxSupply",
      "outputs": [
        {
          "internalType": "uint256",
          "name": "",
          "type": "uint256"
        }
      ],
      "stateMutability": "view",
      "type": "function"
    },
    {
      "inputs": [],
      "name": "mintLimit",
      "outputs": [
        {
          "internalType": "uint256",
          "name": "",
          "type": "uint256"
        }
      ],
      "stateMutability": "view",
      "type": "function"
    },
    {
      "inputs": [],
      "name": "name",
      "outputs": [
        {
          "internalType": "string",
          "name": "",
          "type": "string"
        }
      ],
      "stateMutability": "view",
      "type": "function"
    },
    {
      "inputs": [],
      "name": "owner",
      "outputs": [
        {
          "internalType": "address",
          "name": "",
          "type": "address"
        }
      ],
      "stateMutability": "view",
      "type": "function"
    },
    {
      "inputs": [
        {
          "internalType": "uint256",
          "name": "tokenId",
          "type": "uint256"
        }
      ],
      "name": "ownerOf",
      "outputs": [
        {
          "internalType": "address",
          "name": "",
          "type": "address"
        }
      ],
      "stateMutability": "view",
      "type": "function"
    },
    {
      "inputs": [
        {
          "internalType": "uint256",
          "name": "index",
          "type": "uint256"
        }
      ],
      "name": "payee",
      "outputs": [
        {
          "internalType": "address",
          "name": "",
          "type": "address"
        }
      ],
      "stateMutability": "view",
      "type": "function"
    },
    {
      "inputs": [
        {
          "internalType": "uint256",
          "name": "_amount",
          "type": "uint256"
        },
        {
          "internalType": "bytes32[]",
          "name": "proof",
          "type": "bytes32[]"
        }
      ],
      "name": "presaleMint",
      "outputs": [],
      "stateMutability": "payable",
      "type": "function"
    },
    {
      "inputs": [],
      "name": "presaleMintLimit",
      "outputs": [
        {
          "internalType": "uint256",
          "name": "",
          "type": "uint256"
        }
      ],
      "stateMutability": "view",
      "type": "function"
    },
    {
      "inputs": [],
      "name": "presaleRoot",
      "outputs": [
        {
          "internalType": "bytes32",
          "name": "",
          "type": "bytes32"
        }
      ],
      "stateMutability": "view",
      "type": "function"
    },
    {
      "inputs": [
        {
          "internalType": "uint256",
          "name": "_amount",
          "type": "uint256"
        }
      ],
      "name": "publicMint",
      "outputs": [],
      "stateMutability": "payable",
      "type": "function"
    },
    {
      "inputs": [
        {
          "internalType": "address payable",
          "name": "account",
          "type": "address"
        }
      ],
      "name": "release",
      "outputs": [],
      "stateMutability": "nonpayable",
      "type": "function"
    },
    {
      "inputs": [
        {
          "internalType": "contract IERC20",
          "name": "token",
          "type": "address"
        },
        {
          "internalType": "address",
          "name": "account",
          "type": "address"
        }
      ],
      "name": "release",
      "outputs": [],
      "stateMutability": "nonpayable",
      "type": "function"
    },
    {
      "inputs": [
        {
          "internalType": "contract IERC20",
          "name": "token",
          "type": "address"
        },
        {
          "internalType": "address",
          "name": "account",
          "type": "address"
        }
      ],
      "name": "released",
      "outputs": [
        {
          "internalType": "uint256",
          "name": "",
          "type": "uint256"
        }
      ],
      "stateMutability": "view",
      "type": "function"
    },
    {
      "inputs": [
        {
          "internalType": "address",
          "name": "account",
          "type": "address"
        }
      ],
      "name": "released",
      "outputs": [
        {
          "internalType": "uint256",
          "name": "",
          "type": "uint256"
        }
      ],
      "stateMutability": "view",
      "type": "function"
    },
    {
      "inputs": [],
      "name": "renounceOwnership",
      "outputs": [],
      "stateMutability": "nonpayable",
      "type": "function"
    },
    {
      "inputs": [
        {
          "internalType": "address",
          "name": "from",
          "type": "address"
        },
        {
          "internalType": "address",
          "name": "to",
          "type": "address"
        },
        {
          "internalType": "uint256",
          "name": "tokenId",
          "type": "uint256"
        }
      ],
      "name": "safeTransferFrom",
      "outputs": [],
      "stateMutability": "nonpayable",
      "type": "function"
    },
    {
      "inputs": [
        {
          "internalType": "address",
          "name": "from",
          "type": "address"
        },
        {
          "internalType": "address",
          "name": "to",
          "type": "address"
        },
        {
          "internalType": "uint256",
          "name": "tokenId",
          "type": "uint256"
        },
        {
          "internalType": "bytes",
          "name": "_data",
          "type": "bytes"
        }
      ],
      "name": "safeTransferFrom",
      "outputs": [],
      "stateMutability": "nonpayable",
      "type": "function"
    },
    {
      "inputs": [
        {
          "internalType": "address",
          "name": "operator",
          "type": "address"
        },
        {
          "internalType": "bool",
          "name": "approved",
          "type": "bool"
        }
      ],
      "name": "setApprovalForAll",
      "outputs": [],
      "stateMutability": "nonpayable",
      "type": "function"
    },
    {
      "inputs": [
        {
          "internalType": "string",
          "name": "_tokenBaseURI",
          "type": "string"
        }
      ],
      "name": "setBaseURI",
      "outputs": [],
      "stateMutability": "nonpayable",
      "type": "function"
    },
    {
      "inputs": [
        {
          "internalType": "address",
          "name": "account",
          "type": "address"
        }
      ],
      "name": "shares",
      "outputs": [
        {
          "internalType": "uint256",
          "name": "",
          "type": "uint256"
        }
      ],
      "stateMutability": "view",
      "type": "function"
    },
    {
      "inputs": [],
      "name": "state",
      "outputs": [
        {
          "internalType": "enum MeLegendGen1.State",
          "name": "",
          "type": "uint8"
        }
      ],
      "stateMutability": "view",
      "type": "function"
    },
    {
      "inputs": [
        {
          "internalType": "bytes4",
          "name": "interfaceId",
          "type": "bytes4"
        }
      ],
      "name": "supportsInterface",
      "outputs": [
        {
          "internalType": "bool",
          "name": "",
          "type": "bool"
        }
      ],
      "stateMutability": "view",
      "type": "function"
    },
    {
      "inputs": [],
      "name": "symbol",
      "outputs": [
        {
          "internalType": "string",
          "name": "",
          "type": "string"
        }
      ],
      "stateMutability": "view",
      "type": "function"
    },
    {
      "inputs": [
        {
          "internalType": "uint256",
          "name": "index",
          "type": "uint256"
        }
      ],
      "name": "tokenByIndex",
      "outputs": [
        {
          "internalType": "uint256",
          "name": "",
          "type": "uint256"
        }
      ],
      "stateMutability": "view",
      "type": "function"
    },
    {
      "inputs": [
        {
          "internalType": "address",
          "name": "owner",
          "type": "address"
        },
        {
          "internalType": "uint256",
          "name": "index",
          "type": "uint256"
        }
      ],
      "name": "tokenOfOwnerByIndex",
      "outputs": [
        {
          "internalType": "uint256",
          "name": "",
          "type": "uint256"
        }
      ],
      "stateMutability": "view",
      "type": "function"
    },
    {
      "inputs": [
        {
          "internalType": "uint256",
          "name": "tokenId",
          "type": "uint256"
        }
      ],
      "name": "tokenURI",
      "outputs": [
        {
          "internalType": "string",
          "name": "",
          "type": "string"
        }
      ],
      "stateMutability": "view",
      "type": "function"
    },
    {
      "inputs": [],
      "name": "totalClaimed",
      "outputs": [
        {
          "internalType": "uint256",
          "name": "",
          "type": "uint256"
        }
      ],
      "stateMutability": "view",
      "type": "function"
    },
    {
      "inputs": [
        {
          "internalType": "contract IERC20",
          "name": "token",
          "type": "address"
        }
      ],
      "name": "totalReleased",
      "outputs": [
        {
          "internalType": "uint256",
          "name": "",
          "type": "uint256"
        }
      ],
      "stateMutability": "view",
      "type": "function"
    },
    {
      "inputs": [],
      "name": "totalReleased",
      "outputs": [
        {
          "internalType": "uint256",
          "name": "",
          "type": "uint256"
        }
      ],
      "stateMutability": "view",
      "type": "function"
    },
    {
      "inputs": [],
      "name": "totalShares",
      "outputs": [
        {
          "internalType": "uint256",
          "name": "",
          "type": "uint256"
        }
      ],
      "stateMutability": "view",
      "type": "function"
    },
    {
      "inputs": [],
      "name": "totalSupply",
      "outputs": [
        {
          "internalType": "uint256",
          "name": "",
          "type": "uint256"
        }
      ],
      "stateMutability": "view",
      "type": "function"
    },
    {
      "inputs": [
        {
          "internalType": "address",
          "name": "from",
          "type": "address"
        },
        {
          "internalType": "address",
          "name": "to",
          "type": "address"
        },
        {
          "internalType": "uint256",
          "name": "tokenId",
          "type": "uint256"
        }
      ],
      "name": "transferFrom",
      "outputs": [],
      "stateMutability": "nonpayable",
      "type": "function"
    },
    {
      "inputs": [
        {
          "internalType": "address",
          "name": "newOwner",
          "type": "address"
        }
      ],
      "name": "transferOwnership",
      "outputs": [],
      "stateMutability": "nonpayable",
      "type": "function"
    },
    {
      "stateMutability": "payable",
      "type": "receive"
    }
  ],
  "bytecode": "0x61177060805261037860a052611ae860c052600060145560036015819055601681905567016345785d8a0000601b55610140604052600a60e09081526001610100526059610120526200005691601d9190620005cb565b506040805160608101825273bd584ce590b7dcdbb93b11e095d9e1d5880b44d98152737c95d1209e2f95496c4c9a18aa653fded834503f6020820152739b3397fcd9c19e6104d24ff1542323bd80f9109d91810191909152620000be90601e90600362000620565b50348015620000cc57600080fd5b5060405162003c2938038062003c29833981016040819052620000ef916200070c565b601e8054806020026020016040519081016040528092919081815260200182805480156200014757602002820191906000526020600020905b81546001600160a01b0316815260019091019060200180831162000128575b5050505050601d8054806020026020016040519081016040528092919081815260200182805480156200019a57602002820191906000526020600020905b81548152602001906001019080831162000185575b505060408051808201825260118152704d454c6567656e64204e46542067656e3160781b60208083019182528351808501909452600784526613531959d3919560ca1b908401528151919550919350620001f992506000919062000678565b5080516200020f90600190602084019062000678565b5050506200022c620002266200038760201b60201c565b6200038b565b80518251146200029e5760405162461bcd60e51b815260206004820152603260248201527f5061796d656e7453706c69747465723a2070617965657320616e6420736861726044820152710cae640d8cadccee8d040dad2e6dac2e8c6d60731b60648201526084015b60405180910390fd5b6000825111620002f15760405162461bcd60e51b815260206004820152601a60248201527f5061796d656e7453706c69747465723a206e6f20706179656573000000000000604482015260640162000295565b60005b82518110156200035d57620003488382815181106200031757620003176200073e565b60200260200101518383815181106200033457620003346200073e565b6020026020010151620003dd60201b60201c565b8062000354816200076a565b915050620002f4565b5050601780546001600160a01b0319166001600160a01b03939093169290921790915550620007dd565b3390565b600a80546001600160a01b038381166001600160a01b0319831681179093556040519116919082907f8be0079c531659141344cd1fd0a4f28419497f9722a3daafe3b4186f6b6457e090600090a35050565b6001600160a01b0382166200044a5760405162461bcd60e51b815260206004820152602c60248201527f5061796d656e7453706c69747465723a206163636f756e74206973207468652060448201526b7a65726f206164647265737360a01b606482015260840162000295565b600081116200049c5760405162461bcd60e51b815260206004820152601d60248201527f5061796d656e7453706c69747465723a20736861726573206172652030000000604482015260640162000295565b6001600160a01b0382166000908152600d602052604090205415620005185760405162461bcd60e51b815260206004820152602b60248201527f5061796d656e7453706c69747465723a206163636f756e7420616c726561647960448201526a206861732073686172657360a81b606482015260840162000295565b600f8054600181019091557f8d1108e10bcb7c27dddfc02ed9d693a074039d026cf4ea4240b40f7d581ac8020180546001600160a01b0319166001600160a01b0384169081179091556000908152600d60205260409020819055600b546200058290829062000786565b600b55604080516001600160a01b0384168152602081018390527f40c340f65e17194d14ddddb073d3c9f888e3cb52b5aae0c6c7706b4fbc905fac910160405180910390a15050565b8280548282559060005260206000209081019282156200060e579160200282015b828111156200060e578251829060ff16905591602001919060010190620005ec565b506200061c929150620006f5565b5090565b8280548282559060005260206000209081019282156200060e579160200282015b828111156200060e57825182546001600160a01b0319166001600160a01b0390911617825560209092019160019091019062000641565b8280546200068690620007a1565b90600052602060002090601f016020900481019282620006aa57600085556200060e565b82601f10620006c557805160ff19168380011785556200060e565b828001600101855582156200060e579182015b828111156200060e578251825591602001919060010190620006d8565b5b808211156200061c5760008155600101620006f6565b6000602082840312156200071f57600080fd5b81516001600160a01b03811681146200073757600080fd5b9392505050565b634e487b7160e01b600052603260045260246000fd5b634e487b7160e01b600052601160045260246000fd5b6000600182016200077f576200077f62000754565b5060010190565b600082198211156200079c576200079c62000754565b500190565b600181811c90821680620007b657607f821691505b602082108103620007d757634e487b7160e01b600052602260045260246000fd5b50919050565b60805160a05160c05161340762000822600039600061085a015260008181610729015261152201526000818161078401528181610e5901526119f201526134076000f3fe6080604052600436106102975760003560e01c80638b83209b1161015a578063c285e107116100c1578063d79779b21161007a578063d79779b21461087c578063dc64a754146108b2578063e33b7de3146108c7578063e3e1e8ef146108dc578063e985e9c5146108ef578063f2fde38b1461093857600080fd5b8063c285e10714610772578063c67fc5f9146107a6578063c87b56dd146107dc578063ce7c2ac2146107fc578063d54ad2a114610832578063d5abeb011461084857600080fd5b80639852595c116101135780639852595c1461068b578063996517cf146106c1578063a22cb465146106d7578063b88d4fde146106f7578063be98a05f14610717578063c19d93fb1461074b57600080fd5b80638b83209b146105cb5780638cc4de19146105eb5780638da5cb5b146106185780638dd4916b14610636578063946cc04e1461065657806395d89b411461067657600080fd5b8063406072a9116101fe5780636c0360eb116101b75780636c0360eb1461054d57806370a0823114610562578063715018a61461058257806374b3167214610597578063802e5cb31461059f57806385449697146105b557600080fd5b8063406072a91461046757806342842e0e146104ad57806348b75044146104cd5780634f6ccce7146104ed57806355f804b31461050d5780636352211e1461052d57600080fd5b80632081a88c116102505780632081a88c146103d557806323b872dd146103ea5780632db115441461040a5780632f2770db1461041d5780632f745c59146104325780633a98ef391461045257600080fd5b806301ffc9a7146102e557806306fdde031461031a578063081812fc1461033c578063095ea7b31461037457806318160ddd1461039657806319165587146103b557600080fd5b366102e0577f6ef95f06320e7a25a04a175ca677b7052bdd97131872c2192525a629f51be77033604080516001600160a01b0390921682523460208301520160405180910390a1005b600080fd5b3480156102f157600080fd5b50610305610300366004612c3a565b610958565b60405190151581526020015b60405180910390f35b34801561032657600080fd5b5061032f610983565b6040516103119190612caf565b34801561034857600080fd5b5061035c610357366004612cc2565b610a15565b6040516001600160a01b039091168152602001610311565b34801561038057600080fd5b5061039461038f366004612cf0565b610aaf565b005b3480156103a257600080fd5b506008545b604051908152602001610311565b3480156103c157600080fd5b506103946103d0366004612d1c565b610bc4565b3480156103e157600080fd5b50610394610cf5565b3480156103f657600080fd5b50610394610405366004612d39565b610d36565b610394610418366004612cc2565b610d67565b34801561042957600080fd5b50610394610f6a565b34801561043e57600080fd5b506103a761044d366004612cf0565b610fa8565b34801561045e57600080fd5b50600b546103a7565b34801561047357600080fd5b506103a7610482366004612d7a565b6001600160a01b03918216600090815260116020908152604080832093909416825291909152205490565b3480156104b957600080fd5b506103946104c8366004612d39565b61103e565b3480156104d957600080fd5b506103946104e8366004612d7a565b611059565b3480156104f957600080fd5b506103a7610508366004612cc2565b611235565b34801561051957600080fd5b50610394610528366004612db3565b6112c8565b34801561053957600080fd5b5061035c610548366004612cc2565b6112fe565b34801561055957600080fd5b5061032f611375565b34801561056e57600080fd5b506103a761057d366004612d1c565b611403565b34801561058e57600080fd5b5061039461148a565b6103946114c0565b3480156105ab57600080fd5b506103a760155481565b3480156105c157600080fd5b506103a760135481565b3480156105d757600080fd5b5061035c6105e6366004612cc2565b611737565b3480156105f757600080fd5b506103a7610606366004612d1c565b60196020526000908152604090205481565b34801561062457600080fd5b50600a546001600160a01b031661035c565b34801561064257600080fd5b5060175461035c906001600160a01b031681565b34801561066257600080fd5b50610394610671366004612cc2565b611767565b34801561068257600080fd5b5061032f6117a3565b34801561069757600080fd5b506103a76106a6366004612d1c565b6001600160a01b03166000908152600e602052604090205490565b3480156106cd57600080fd5b506103a760165481565b3480156106e357600080fd5b506103946106f2366004612e33565b6117b2565b34801561070357600080fd5b50610394610712366004612ea8565b6117bd565b34801561072357600080fd5b506103a77f000000000000000000000000000000000000000000000000000000000000000081565b34801561075757600080fd5b506012546107659060ff1681565b6040516103119190612f82565b34801561077e57600080fd5b506103a77f000000000000000000000000000000000000000000000000000000000000000081565b3480156107b257600080fd5b5061035c6107c1366004612cc2565b601a602052600090815260409020546001600160a01b031681565b3480156107e857600080fd5b5061032f6107f7366004612cc2565b6117f5565b34801561080857600080fd5b506103a7610817366004612d1c565b6001600160a01b03166000908152600d602052604090205490565b34801561083e57600080fd5b506103a760145481565b34801561085457600080fd5b506103a77f000000000000000000000000000000000000000000000000000000000000000081565b34801561088857600080fd5b506103a7610897366004612d1c565b6001600160a01b031660009081526010602052604090205490565b3480156108be57600080fd5b506103946118ac565b3480156108d357600080fd5b50600c546103a7565b6103946108ea366004612faa565b6118ea565b3480156108fb57600080fd5b5061030561090a366004612d7a565b6001600160a01b03918216600090815260056020908152604080832093909416825291909152205460ff1690565b34801561094457600080fd5b50610394610953366004612d1c565b611b7f565b60006001600160e01b0319821663780e9d6360e01b148061097d575061097d82611c1a565b92915050565b6060600080546109929061305c565b80601f01602080910402602001604051908101604052809291908181526020018280546109be9061305c565b8015610a0b5780601f106109e057610100808354040283529160200191610a0b565b820191906000526020600020905b8154815290600101906020018083116109ee57829003601f168201915b5050505050905090565b6000818152600260205260408120546001600160a01b0316610a935760405162461bcd60e51b815260206004820152602c60248201527f4552433732313a20617070726f76656420717565727920666f72206e6f6e657860448201526b34b9ba32b73a103a37b5b2b760a11b60648201526084015b60405180910390fd5b506000908152600460205260409020546001600160a01b031690565b6000610aba826112fe565b9050806001600160a01b0316836001600160a01b031603610b275760405162461bcd60e51b815260206004820152602160248201527f4552433732313a20617070726f76616c20746f2063757272656e74206f776e656044820152603960f91b6064820152608401610a8a565b336001600160a01b0382161480610b435750610b43813361090a565b610bb55760405162461bcd60e51b815260206004820152603860248201527f4552433732313a20617070726f76652063616c6c6572206973206e6f74206f7760448201527f6e6572206e6f7220617070726f76656420666f7220616c6c00000000000000006064820152608401610a8a565b610bbf8383611c6a565b505050565b6001600160a01b0381166000908152600d6020526040902054610bf95760405162461bcd60e51b8152600401610a8a90613096565b6000610c04600c5490565b610c0e90476130f2565b90506000610c3b8383610c36866001600160a01b03166000908152600e602052604090205490565b611cd8565b905080600003610c5d5760405162461bcd60e51b8152600401610a8a9061310a565b6001600160a01b0383166000908152600e602052604081208054839290610c859084906130f2565b9250508190555080600c6000828254610c9e91906130f2565b90915550610cae90508382611d1e565b604080516001600160a01b0385168152602081018390527fdf20fd1e76bc69d672e4814fafb2c449bba3a5369d8359adf9e05e6fde87b056910160405180910390a1505050565b600a546001600160a01b03163314610d1f5760405162461bcd60e51b8152600401610a8a90613155565b601280546003919060ff19166001835b0217905550565b610d403382611e37565b610d5c5760405162461bcd60e51b8152600401610a8a9061318a565b610bbf838383611f2d565b600260125460ff166003811115610d8057610d80612f6c565b14610dc75760405162461bcd60e51b81526020600482015260176024820152761c1d589b1a58c81cd85b19481b9bdd08195b98589b1959604a1b6044820152606401610a8a565b60008111610e055760405162461bcd60e51b815260206004820152600b60248201526a1e995c9bc8185b5bdd5b9d60aa1b6044820152606401610a8a565b601654811115610e575760405162461bcd60e51b815260206004820152601960248201527f63616e2774206d696e7420736f206d75636820746f6b656e73000000000000006044820152606401610a8a565b7f000000000000000000000000000000000000000000000000000000000000000081610e8260085490565b610e8c91906130f2565b1115610ed05760405162461bcd60e51b81526020600482015260136024820152721b585e081cdd5c1c1b1e48195e18d959591959606a1b6044820152606401610a8a565b3481601b54610edf91906131db565b1115610f295760405162461bcd60e51b81526020600482015260196024820152781d985b1d59481cd95b9d081a5cc81b9bdd0818dbdc9c9958dd603a1b6044820152606401610a8a565b60005b81811015610f6657610f42601c80546001019055565b610f5433610f4f601c5490565b6120d4565b80610f5e816131fa565b915050610f2c565b5050565b600a546001600160a01b03163314610f945760405162461bcd60e51b8152600401610a8a90613155565b601280546000919060ff1916600183610d2f565b6000610fb383611403565b82106110155760405162461bcd60e51b815260206004820152602b60248201527f455243373231456e756d657261626c653a206f776e657220696e646578206f7560448201526a74206f6620626f756e647360a81b6064820152608401610a8a565b506001600160a01b03919091166000908152600660209081526040808320938352929052205490565b610bbf838383604051806020016040528060008152506117bd565b6001600160a01b0381166000908152600d602052604090205461108e5760405162461bcd60e51b8152600401610a8a90613096565b6001600160a01b0382166000908152601060205260408120546040516370a0823160e01b81523060048201526001600160a01b038516906370a0823190602401602060405180830381865afa1580156110eb573d6000803e3d6000fd5b505050506040513d601f19601f8201168201806040525081019061110f9190613213565b61111991906130f2565b905060006111528383610c3687876001600160a01b03918216600090815260116020908152604080832093909416825291909152205490565b9050806000036111745760405162461bcd60e51b8152600401610a8a9061310a565b6001600160a01b038085166000908152601160209081526040808320938716835292905290812080548392906111ab9084906130f2565b90915550506001600160a01b038416600090815260106020526040812080548392906111d89084906130f2565b909155506111e990508484836120ee565b604080516001600160a01b038581168252602082018490528616917f3be5b7a71e84ed12875d241991c70855ac5817d847039e17a9d895c1ceb0f18a910160405180910390a250505050565b600061124060085490565b82106112a35760405162461bcd60e51b815260206004820152602c60248201527f455243373231456e756d657261626c653a20676c6f62616c20696e646578206f60448201526b7574206f6620626f756e647360a01b6064820152608401610a8a565b600882815481106112b6576112b661322c565b90600052602060002001549050919050565b600a546001600160a01b031633146112f25760405162461bcd60e51b8152600401610a8a90613155565b610bbf60188383612b8b565b6000818152600260205260408120546001600160a01b03168061097d5760405162461bcd60e51b815260206004820152602960248201527f4552433732313a206f776e657220717565727920666f72206e6f6e657869737460448201526832b73a103a37b5b2b760b91b6064820152608401610a8a565b601880546113829061305c565b80601f01602080910402602001604051908101604052809291908181526020018280546113ae9061305c565b80156113fb5780601f106113d0576101008083540402835291602001916113fb565b820191906000526020600020905b8154815290600101906020018083116113de57829003601f168201915b505050505081565b60006001600160a01b03821661146e5760405162461bcd60e51b815260206004820152602a60248201527f4552433732313a2062616c616e636520717565727920666f7220746865207a65604482015269726f206164647265737360b01b6064820152608401610a8a565b506001600160a01b031660009081526003602052604090205490565b600a546001600160a01b031633146114b45760405162461bcd60e51b8152600401610a8a90613155565b6114be6000612140565b565b600360125460ff1660038111156114d9576114d9612f6c565b146115205760405162461bcd60e51b81526020600482015260176024820152761c1d589b1a58c81cd85b19481b9bdd08195b98589b1959604a1b6044820152606401610a8a565b7f000000000000000000000000000000000000000000000000000000000000000060145411156115925760405162461bcd60e51b815260206004820152601960248201527f6d617820636c61696d20737570706c79206578636565646564000000000000006044820152606401610a8a565b6017546000906001600160a01b03166370a08231336040516001600160e01b031960e084901b1681526001600160a01b039091166004820152602401602060405180830381865afa1580156115eb573d6000803e3d6000fd5b505050506040513d601f19601f8201168201806040525081019061160f9190613213565b90506000805b82811015611721576017546000906001600160a01b0316632f745c59336040516001600160e01b031960e084901b1681526001600160a01b03909116600482015260248101859052604401602060405180830381865afa15801561167d573d6000803e3d6000fd5b505050506040513d601f19601f820116820180604052508101906116a19190613213565b6000818152601a60205260409020549091506001600160a01b0316156116c7575061170f565b6116d5601c80546001019055565b6116e233610f4f601c5490565b6000818152601a6020526040902080546001600160a01b031916331790558261170a816131fa565b935050505b80611719816131fa565b915050611615565b508060145461173091906130f2565b6014555050565b6000600f828154811061174c5761174c61322c565b6000918252602090912001546001600160a01b031692915050565b600a546001600160a01b031633146117915760405162461bcd60e51b8152600401610a8a90613155565b6012805460ff19166001179055601355565b6060600180546109929061305c565b610f66338383612192565b6117c73383611e37565b6117e35760405162461bcd60e51b8152600401610a8a9061318a565b6117ef84848484612260565b50505050565b6000818152600260205260409020546060906001600160a01b03166118505760405162461bcd60e51b81526020600482015260116024820152703737b732bc34b9ba32b73a103a37b5b2b760791b6044820152606401610a8a565b600061185a612293565b9050600081511161187a57604051806020016040528060008152506118a5565b80611884846122a2565b604051602001611895929190613242565b6040516020818303038152906040525b9392505050565b600a546001600160a01b031633146118d65760405162461bcd60e51b8152600401610a8a90613155565b601280546002919060ff1916600183610d2f565b600160125460ff16600381111561190357611903612f6c565b146119465760405162461bcd60e51b81526020600482015260136024820152721c1c995cd85b19481b9bdd08195b98589b1959606a1b6044820152606401610a8a565b600082116119845760405162461bcd60e51b815260206004820152600b60248201526a1e995c9bc8185b5bdd5b9d60aa1b6044820152606401610a8a565b601554336000908152601960205260409020546119a29084906130f2565b11156119f05760405162461bcd60e51b815260206004820152601860248201527f63616e2774206d696e742073756368206120616d6f756e7400000000000000006044820152606401610a8a565b7f000000000000000000000000000000000000000000000000000000000000000082611a1b60085490565b611a2591906130f2565b1115611a695760405162461bcd60e51b81526020600482015260136024820152721b585e081cdd5c1c1b1e48195e18d959591959606a1b6044820152606401610a8a565b81601b54611a7791906131db565b341015611ac25760405162461bcd60e51b81526020600482015260196024820152781d985b1d59481cd95b9d081a5cc81b9bdd0818dbdc9c9958dd603a1b6044820152606401610a8a565b611acc33826123a3565b611b185760405162461bcd60e51b815260206004820152601c60248201527f6e6f742073656c656374656420666f72207468652070726573616c65000000006044820152606401610a8a565b60005b82811015611b4f57611b31601c80546001019055565b611b3d33601c546120d4565b80611b47816131fa565b915050611b1b565b5033600090815260196020526040902054611b6b9083906130f2565b336000908152601960205260409020555050565b600a546001600160a01b03163314611ba95760405162461bcd60e51b8152600401610a8a90613155565b6001600160a01b038116611c0e5760405162461bcd60e51b815260206004820152602660248201527f4f776e61626c653a206e6577206f776e657220697320746865207a65726f206160448201526564647265737360d01b6064820152608401610a8a565b611c1781612140565b50565b60006001600160e01b031982166380ac58cd60e01b1480611c4b57506001600160e01b03198216635b5e139f60e01b145b8061097d57506301ffc9a760e01b6001600160e01b031983161461097d565b600081815260046020526040902080546001600160a01b0319166001600160a01b0384169081179091558190611c9f826112fe565b6001600160a01b03167f8c5be1e5ebec7d5bd14f71427d1e84f3dd0314c0f7b2291e5b200ac8c7c3b92560405160405180910390a45050565b600b546001600160a01b0384166000908152600d602052604081205490918391611d0290866131db565b611d0c9190613297565b611d1691906132ab565b949350505050565b80471015611d6e5760405162461bcd60e51b815260206004820152601d60248201527f416464726573733a20696e73756666696369656e742062616c616e63650000006044820152606401610a8a565b6000826001600160a01b03168260405160006040518083038185875af1925050503d8060008114611dbb576040519150601f19603f3d011682016040523d82523d6000602084013e611dc0565b606091505b5050905080610bbf5760405162461bcd60e51b815260206004820152603a60248201527f416464726573733a20756e61626c6520746f2073656e642076616c75652c207260448201527f6563697069656e74206d617920686176652072657665727465640000000000006064820152608401610a8a565b6000818152600260205260408120546001600160a01b0316611eb05760405162461bcd60e51b815260206004820152602c60248201527f4552433732313a206f70657261746f7220717565727920666f72206e6f6e657860448201526b34b9ba32b73a103a37b5b2b760a11b6064820152608401610a8a565b6000611ebb836112fe565b9050806001600160a01b0316846001600160a01b03161480611f0257506001600160a01b0380821660009081526005602090815260408083209388168352929052205460ff165b80611d165750836001600160a01b0316611f1b84610a15565b6001600160a01b031614949350505050565b826001600160a01b0316611f40826112fe565b6001600160a01b031614611fa45760405162461bcd60e51b815260206004820152602560248201527f4552433732313a207472616e736665722066726f6d20696e636f72726563742060448201526437bbb732b960d91b6064820152608401610a8a565b6001600160a01b0382166120065760405162461bcd60e51b8152602060048201526024808201527f4552433732313a207472616e7366657220746f20746865207a65726f206164646044820152637265737360e01b6064820152608401610a8a565b6120118383836123ec565b61201c600082611c6a565b6001600160a01b03831660009081526003602052604081208054600192906120459084906132ab565b90915550506001600160a01b03821660009081526003602052604081208054600192906120739084906130f2565b909155505060008181526002602052604080822080546001600160a01b0319166001600160a01b0386811691821790925591518493918716917fddf252ad1be2c89b69c2b068fc378daa952ba7f163c4a11628f55a4df523b3ef91a4505050565b610f668282604051806020016040528060008152506124a4565b604080516001600160a01b038416602482015260448082018490528251808303909101815260649091019091526020810180516001600160e01b031663a9059cbb60e01b179052610bbf9084906124d7565b600a80546001600160a01b038381166001600160a01b0319831681179093556040519116919082907f8be0079c531659141344cd1fd0a4f28419497f9722a3daafe3b4186f6b6457e090600090a35050565b816001600160a01b0316836001600160a01b0316036121f35760405162461bcd60e51b815260206004820152601960248201527f4552433732313a20617070726f766520746f2063616c6c6572000000000000006044820152606401610a8a565b6001600160a01b03838116600081815260056020908152604080832094871680845294825291829020805460ff191686151590811790915591519182527f17307eab39ab6107e8899845ad3d59bd9653f200f220920489ca2b5937696c31910160405180910390a3505050565b61226b848484611f2d565b612277848484846125a9565b6117ef5760405162461bcd60e51b8152600401610a8a906132c2565b6060601880546109929061305c565b6060816000036122c95750506040805180820190915260018152600360fc1b602082015290565b8160005b81156122f357806122dd816131fa565b91506122ec9050600a83613297565b91506122cd565b60008167ffffffffffffffff81111561230e5761230e612e61565b6040519080825280601f01601f191660200182016040528015612338576020820181803683370190505b5090505b8415611d165761234d6001836132ab565b915061235a600a86613314565b6123659060306130f2565b60f81b81838151811061237a5761237a61322c565b60200101906001600160f81b031916908160001a90535061239c600a86613297565b945061233c565b6040516bffffffffffffffffffffffff19606084901b1660208201526000908190603401604051602081830303815290604052805190602001209050611d1683601354836126aa565b6001600160a01b0383166124475761244281600880546000838152600960205260408120829055600182018355919091527ff3f7a9fe364faab93b216da50a3214154f22a0a2b415b23a84c8169e8b636ee30155565b61246a565b816001600160a01b0316836001600160a01b03161461246a5761246a83826126c0565b6001600160a01b03821661248157610bbf8161275d565b826001600160a01b0316826001600160a01b031614610bbf57610bbf828261280c565b6124ae8383612850565b6124bb60008484846125a9565b610bbf5760405162461bcd60e51b8152600401610a8a906132c2565b600061252c826040518060400160405280602081526020017f5361666545524332303a206c6f772d6c6576656c2063616c6c206661696c6564815250856001600160a01b031661299e9092919063ffffffff16565b805190915015610bbf578080602001905181019061254a9190613328565b610bbf5760405162461bcd60e51b815260206004820152602a60248201527f5361666545524332303a204552433230206f7065726174696f6e20646964206e6044820152691bdd081cdd58d8d9595960b21b6064820152608401610a8a565b60006001600160a01b0384163b1561269f57604051630a85bd0160e11b81526001600160a01b0385169063150b7a02906125ed903390899088908890600401613345565b6020604051808303816000875af1925050508015612628575060408051601f3d908101601f1916820190925261262591810190613382565b60015b612685573d808015612656576040519150601f19603f3d011682016040523d82523d6000602084013e61265b565b606091505b50805160000361267d5760405162461bcd60e51b8152600401610a8a906132c2565b805181602001fd5b6001600160e01b031916630a85bd0160e11b149050611d16565b506001949350505050565b6000826126b785846129ad565b14949350505050565b600060016126cd84611403565b6126d791906132ab565b60008381526007602052604090205490915080821461272a576001600160a01b03841660009081526006602090815260408083208584528252808320548484528184208190558352600790915290208190555b5060009182526007602090815260408084208490556001600160a01b039094168352600681528383209183525290812055565b60085460009061276f906001906132ab565b600083815260096020526040812054600880549394509092849081106127975761279761322c565b9060005260206000200154905080600883815481106127b8576127b861322c565b60009182526020808320909101929092558281526009909152604080822084905585825281205560088054806127f0576127f061339f565b6001900381819060005260206000200160009055905550505050565b600061281783611403565b6001600160a01b039093166000908152600660209081526040808320868452825280832085905593825260079052919091209190915550565b6001600160a01b0382166128a65760405162461bcd60e51b815260206004820181905260248201527f4552433732313a206d696e7420746f20746865207a65726f20616464726573736044820152606401610a8a565b6000818152600260205260409020546001600160a01b03161561290b5760405162461bcd60e51b815260206004820152601c60248201527f4552433732313a20746f6b656e20616c7265616479206d696e746564000000006044820152606401610a8a565b612917600083836123ec565b6001600160a01b03821660009081526003602052604081208054600192906129409084906130f2565b909155505060008181526002602052604080822080546001600160a01b0319166001600160a01b03861690811790915590518392907fddf252ad1be2c89b69c2b068fc378daa952ba7f163c4a11628f55a4df523b3ef908290a45050565b6060611d168484600085612a21565b600081815b8451811015612a195760008582815181106129cf576129cf61322c565b602002602001015190508083116129f55760008381526020829052604090209250612a06565b600081815260208490526040902092505b5080612a11816131fa565b9150506129b2565b509392505050565b606082471015612a825760405162461bcd60e51b815260206004820152602660248201527f416464726573733a20696e73756666696369656e742062616c616e636520666f6044820152651c8818d85b1b60d21b6064820152608401610a8a565b6001600160a01b0385163b612ad95760405162461bcd60e51b815260206004820152601d60248201527f416464726573733a2063616c6c20746f206e6f6e2d636f6e74726163740000006044820152606401610a8a565b600080866001600160a01b03168587604051612af591906133b5565b60006040518083038185875af1925050503d8060008114612b32576040519150601f19603f3d011682016040523d82523d6000602084013e612b37565b606091505b5091509150612b47828286612b52565b979650505050505050565b60608315612b615750816118a5565b825115612b715782518084602001fd5b8160405162461bcd60e51b8152600401610a8a9190612caf565b828054612b979061305c565b90600052602060002090601f016020900481019282612bb95760008555612bff565b82601f10612bd25782800160ff19823516178555612bff565b82800160010185558215612bff579182015b82811115612bff578235825591602001919060010190612be4565b50612c0b929150612c0f565b5090565b5b80821115612c0b5760008155600101612c10565b6001600160e01b031981168114611c1757600080fd5b600060208284031215612c4c57600080fd5b81356118a581612c24565b60005b83811015612c72578181015183820152602001612c5a565b838111156117ef5750506000910152565b60008151808452612c9b816020860160208601612c57565b601f01601f19169290920160200192915050565b6020815260006118a56020830184612c83565b600060208284031215612cd457600080fd5b5035919050565b6001600160a01b0381168114611c1757600080fd5b60008060408385031215612d0357600080fd5b8235612d0e81612cdb565b946020939093013593505050565b600060208284031215612d2e57600080fd5b81356118a581612cdb565b600080600060608486031215612d4e57600080fd5b8335612d5981612cdb565b92506020840135612d6981612cdb565b929592945050506040919091013590565b60008060408385031215612d8d57600080fd5b8235612d9881612cdb565b91506020830135612da881612cdb565b809150509250929050565b60008060208385031215612dc657600080fd5b823567ffffffffffffffff80821115612dde57600080fd5b818501915085601f830112612df257600080fd5b813581811115612e0157600080fd5b866020828501011115612e1357600080fd5b60209290920196919550909350505050565b8015158114611c1757600080fd5b60008060408385031215612e4657600080fd5b8235612e5181612cdb565b91506020830135612da881612e25565b634e487b7160e01b600052604160045260246000fd5b604051601f8201601f1916810167ffffffffffffffff81118282101715612ea057612ea0612e61565b604052919050565b60008060008060808587031215612ebe57600080fd5b8435612ec981612cdb565b9350602085810135612eda81612cdb565b935060408601359250606086013567ffffffffffffffff80821115612efe57600080fd5b818801915088601f830112612f1257600080fd5b813581811115612f2457612f24612e61565b612f36601f8201601f19168501612e77565b91508082528984828501011115612f4c57600080fd5b808484018584013760008482840101525080935050505092959194509250565b634e487b7160e01b600052602160045260246000fd5b6020810160048310612fa457634e487b7160e01b600052602160045260246000fd5b91905290565b60008060408385031215612fbd57600080fd5b8235915060208084013567ffffffffffffffff80821115612fdd57600080fd5b818601915086601f830112612ff157600080fd5b81358181111561300357613003612e61565b8060051b9150613014848301612e77565b818152918301840191848101908984111561302e57600080fd5b938501935b8385101561304c57843582529385019390850190613033565b8096505050505050509250929050565b600181811c9082168061307057607f821691505b60208210810361309057634e487b7160e01b600052602260045260246000fd5b50919050565b60208082526026908201527f5061796d656e7453706c69747465723a206163636f756e7420686173206e6f2060408201526573686172657360d01b606082015260800190565b634e487b7160e01b600052601160045260246000fd5b60008219821115613105576131056130dc565b500190565b6020808252602b908201527f5061796d656e7453706c69747465723a206163636f756e74206973206e6f742060408201526a191d59481c185e5b595b9d60aa1b606082015260800190565b6020808252818101527f4f776e61626c653a2063616c6c6572206973206e6f7420746865206f776e6572604082015260600190565b60208082526031908201527f4552433732313a207472616e736665722063616c6c6572206973206e6f74206f6040820152701ddb995c881b9bdc88185c1c1c9bdd9959607a1b606082015260800190565b60008160001904831182151516156131f5576131f56130dc565b500290565b60006001820161320c5761320c6130dc565b5060010190565b60006020828403121561322557600080fd5b5051919050565b634e487b7160e01b600052603260045260246000fd5b60008351613254818460208801612c57565b835190830190613268818360208801612c57565b64173539b7b760d91b9101908152600501949350505050565b634e487b7160e01b600052601260045260246000fd5b6000826132a6576132a6613281565b500490565b6000828210156132bd576132bd6130dc565b500390565b60208082526032908201527f4552433732313a207472616e7366657220746f206e6f6e20455243373231526560408201527131b2b4bb32b91034b6b83632b6b2b73a32b960711b606082015260800190565b60008261332357613323613281565b500690565b60006020828403121561333a57600080fd5b81516118a581612e25565b6001600160a01b038581168252841660208201526040810183905260806060820181905260009061337890830184612c83565b9695505050505050565b60006020828403121561339457600080fd5b81516118a581612c24565b634e487b7160e01b600052603160045260246000fd5b600082516133c7818460208701612c57565b919091019291505056fea26469706673582212208999583243a0ec926c63d3dec3005f73e8ddcd5d18b3e4f040d01caffd903d2264736f6c634300080d0033",
  "linkReferences": {},
  "deployedLinkReferences": {}
}